:020000040800F2
:1000000068060020750200087D0200087F020008D3
:100010008102000883020008850200080000000039
:10002000000000000000000000000000870200083F
:1000300089020008000000008B0200088D02000801
:100040008F0200088F0200088F0200088F0200084C
:100050008F0200088F0200088F0200088F0200083C
:100060008F0200088F0200088F0200088F0200082C
:100070008F0200088F0200088F0200088F0200081C
:100080008F0200088F0200088F0200088F0200080C
:100090008F0200088F0200088F0200088F020008FC
:1000A0008F0200088F0200088F0200088F020008EC
:1000B0008F0200088F0200088F0200088F020008DC
:1000C0008F0200088F0200088F0200088F020008CC
:1000D0008F0200088F0200088F0200088F020008BC
:1000E0008F0200088F0200088F0200088F020008AC
:1000F0008F0200088F0200088F0200088F0200089C
:100100008F0200088F0200088F0200088F0200088B
:100110008F0200088F0200088F0200088F0200087B
:100120008F0200088F0200088F0200088F0200086B
:100130008F02000800000000000000008F0200088D
:100140008F0200088F0200088F0200088F0200084B
:100150008F0200088F0200088F0200088F0200083B
:100160008F0200088F0200088F0200088F0200082B
:100170008F0200088F0200088F02000800000000B4
:10018000000000008F0200080000000000000000D6
:100190008F02000800000000000000008F0200082D
:1001A0000000000000000000000000008F020008B6
:1001B0008F0200088F0200088F0200088F020008DB
:1001C0008F02000800F002F800F044F814A696E848
:1001D000000CB244B344DA4501D100F03BF8BAE870
:1001E0000F000FA696E83000A5EB040504EB060708
:1001F000AAEB0704A7F101074FEA15154FEA3414DB
:10020000A4F10104AC4201D300F024F813F0010F73
:1002100018BFFB1A43F0010300F001F8DBE71847B1
:100220004C0300005C030000704700000023002422
:1002300000250026103A28BF78C1FBD8520728BFF6
:1002400030C148BF0B6070471FB500F081F91FBD7A
:1002500010B510BD00F031F81146FFF7F5FF00F0C2
:10026000FFF800F04FF803B4FFF7F2FF03BC00F013
:1002700057F800000948804709480047FEE7FEE7B5
:10028000FEE7FEE7FEE7FEE7FEE7FEE7FEE7FEE746
:1002900004480549054A064B704700003103000831
:1002A000C5010008680000206806002068020020E0
:1002B00068020020704770477047754600F02CF8C0
:1002C000AE4605006946534620F00700854618B043
:1002D00020B5FFF7DDFFBDE820404FF000064FF0EE
:1002E00000074FF000084FF0000BAC46ACE8C00927
:1002F000ACE8C009ACE8C009ACE8C00921F00701CE
:100300008D46704710B50446AFF300802046BDE827
:100310001040FFF7A8BF0000004870470000002011
:1003200001491820ABBEFEE726000200704700001E
:100330004EF68851CEF20001086840F47000086063
:100340007047000044F21041C4F2000108680860E0
:1003500044F20C41C4F20001086840F00400086057
:10036000FFE744F20040C4F2000000688006002865
:1003700001D4FFE7F5E744F20041C4F20001086848
:1003800020F00400086044F20440C4F20000006859
:10039000704700000021C4F20201086840F0A0008C
:1003A00008602021C4F20201086840F4EE400860B1
:1003B0000821C4F20201086840F0F000086044F22D
:1003C0000C41C4F20001086840F40050086008685D
:1003D000086044F20842C4F20002106840F28363ED
:1003E00018431060086840F008000860704700007B
:1003F00081B08DF803009DF8030044F20441C4F27B
:1004000000010860FFE744F20040C4F20000006809
:100410004006002801D4FFE7F5E701B0704700006F
:1004200083B0029000200190FFE701980299884272
:1004300013D2FFE700200090FFE7009840F2FA4156
:10044000884205D8FFE7FFE7009801300090F4E705
:10045000FFE7019801300190E7E703B07047000023
:1004600080B582B00020019043F63001C4F2020151
:10047000086840F001000860086840F00400086067
:1004800043F64001C4F20201086840F400300860FD
:10049000FFF780FF40F60001C4F20201086840F255
:1004A000111210430860FFE7FFF74CFF014640F2CE
:1004B0006000C2F2000001600068572811D1FFE718
:1004C00040F61401C4F202010868002008600868C0
:1004D00040F001000860086808604D20FFF788FFC1
:1004E000FFE740F26000C2F200000068532814D118
:1004F000FFE740F61401C4F202010868002008601A
:1005000008680860086840F0040008606420FFF78D
:1005100087FF5320FFF76CFFFFE740F26000C2F255
:1005200000000068442812D1FFE740F61401C4F22D
:100530000201086800200860086840F010000860A8
:100540006420FFF76DFF4420FFF752FFFFE7ABE7A2
:10055000F1EE100A4FF6FF71C0F2C03120EA01003F
:1005600040F04070E1EE100A704700007C05000882
:0C05700000000020680600002C020008BB
:040000050800027578
:00000001FF
